:100000000C945E000C9451030C942A030C9486000B
:100010000C9486000C9486000C9486000C94780353
:100020000C9486000C9486000C9486000C94860038
:100030000C9486000C9486000C9486000C94860028
:100040000C94E0020C9486000C941E040C94F803AB
:100050000C9486000C9486000C9486000C94860008
:100060000C9486000C9486000200000000240027F7
:10007000002A0000000000250028002B00040404D2
:100080000404040404020202020202030303030341
:10009000030102040810204080010204081020011E
:1000A0000204081020000000080002010000030400
:1000B00007000000000000000000500411241FBED3
:1000C000CFEFD8E0DEBFCDBF11E0A0E0B1E0E8E3C4
:1000D000FAE002C005900D92A831B107D9F721E0EE
:1000E000A8E1B1E001C01D92AD3CB207E1F710E01C
:1000F000CEE5D0E004C02197FE010E941405CD3565
:10010000D107C9F70E947D040C941A050C940000D5
:1001100090E0FC01EB55FF4F2491FC01EF56FF4F9F
:100120003491FC01E358FF4FE491EE23C9F0222300
:1001300039F0233001F1A8F4213019F1223029F1EE
:10014000F0E0EE0FFF1FED58FF4FA591B4918FB770
:10015000F894EC91611126C030953E233C938FBFFB
:1001600008952730A9F02830C9F0243049F780914C
:1001700080008F7D03C0809180008F778093800006
:10018000DFCF84B58F7784BDDBCF84B58F7DFBCF88
:100190008091B0008F778093B000D2CF8091B00073
:1001A0008F7DF9CF3E2BDACF3FB7F89480912C01A9
:1001B00090912D01A0912E01B0912F0126B5A89B01
:1001C00005C02F3F19F00196A11DB11D3FBFBA2FE9
:1001D000A92F982F8827BC01CD01620F711D811DA9
:1001E000911D42E0660F771F881F991F4A95D1F72E
:1001F00008958F929F92AF92BF92CF92DF92EF922B
:10020000FF920E94D4004B015C0188EEC82E83E06F
:10021000D82EE12CF12C0E94D400681979098A09A2
:100220009B09683E734081059105A8F321E0C21A3D
:10023000D108E108F10888EE880E83E0981EA11C21
:10024000B11CC114D104E104F10429F7FF90EF902F
:10025000DF90CF90BF90AF909F908F9008950895BA
:10026000AF92BF92CF92DF92EF92FF920F931F93C4
:10027000CF93DF936C017B018B01040F151FEB0102
:100280005E01AE18BF08C017D10759F06991D601B9
:10029000ED91FC910190F081E02DC6010995892B2B
:1002A00079F7C501DF91CF911F910F91FF90EF90EA
:1002B000DF90CF90BF90AF900895FC01538D448D97
:1002C000252F30E0842F90E0821B930B541710F001
:1002D000CF96089501970895FC01918D828D98170E
:1002E00061F0A28DAE0FBF2FB11D5D968C91928DE6
:1002F0009F5F9F73928F90E008958FEF9FEF089517
:10030000FC01918D828D981731F0828DE80FF11DDF
:10031000858D90E008958FEF9FEF0895FC01918DFA
:10032000228D892F90E0805C9F4F821B91098F73F3
:100330009927089580E391E00E948E0121E0892BA6
:1003400009F420E0822F089580E090E0892B29F0C5
:100350000E949A0181110C9400000895FC01A48D63
:10036000A80FB92FB11DA35ABF4F2C91848D90E0D7
:1003700001968F739927848FA689B7892C93A089BA
:10038000B1898C91837080648C93938D848D981344
:1003900006C00288F389E02D80818F7D80830895D7
:1003A000EF92FF920F931F93CF93DF93EC0181E0C5
:1003B000888F9B8D8C8D98131AC0E889F98980816C
:1003C00085FF15C09FB7F894EE89FF896083E8899F
:1003D000F98980818370806480839FBF81E090E091
:1003E000DF91CF911F910F91FF90EF900895F62E1E
:1003F0000B8D10E00F5F1F4F0F731127E02E8C8DB8
:100400008E110CC00FB607FCFACFE889F9898081FC
:1004100085FFF5CFCE010E94AE01F1CFEB8DEC0F41
:10042000FD2FF11DE35AFF4FF0829FB7F8940B8F19
:10043000EA89FB8980818062CFCFCF93DF93EC0183
:10044000888D8823B9F0AA89BB89E889F9898C91BC
:1004500085FD03C0808186FD0DC00FB607FCF7CF78
:100460008C9185FFF2CF808185FFEDCFCE010E9478
:10047000AE01E9CFDF91CF9108958F929F92AF9215
:10048000BF92EF92FF920F931F93CF93DF93CDB75D
:10049000DEB7A1970FB6F894DEBF0FBECDBF7C01CB
:1004A000FA01CB0119A2223008F42AE08E010F5D77
:1004B0001F4F822E912CB12CA12CBF01A5019401BC
:1004C0000E94F204F901CA016A3074F5605DD80136
:1004D0006E938D01232B242B252B79F790E080E060
:1004E000109789F0FD0101900020E9F73197AF01E5
:1004F0004A1B5B0BD701ED91FC910280F381E02D4B
:10050000B801C7010995A1960FB6F894DEBF0FBEDA
:10051000CDBFDF91CF911F910F91FF90EF90BF90D2
:10052000AF909F908F900895695CD1CF8F929F92EA
:10053000AF92BF92CF92DF92EF92FF920F931F93F1
:10054000CF93DF937C01EB016C0182E0C80ED11CDC
:100550004701E5E08E0E911C10E000E0F6014191AC
:100560006F0150E070E060E02AE0CE010E943D02A1
:100570005C01E881F9810190F081E02D6EE2CE010D
:1005800009958A0D9B1D080F191FC814D90431F74E
:10059000F701458150E070E060E02AE0CE010E9462
:1005A0003D02800F911FDF91CF911F910F91FF901E
:1005B000EF90DF90CF90BF90AF909F908F90089575
:1005C0001F920F920FB60F9211242F933F938F9388
:1005D0009F93AF93BF938091280190912901A0919F
:1005E0002A01B0912B013091270123E0230F2D37F1
:1005F00058F50196A11DB11D209327018093280174
:1006000090932901A0932A01B0932B0180912C0192
:1006100090912D01A0912E01B0912F010196A11D65
:10062000B11D80932C0190932D01A0932E01B093C6
:100630002F01BF91AF919F918F913F912F910F907B
:100640000FBE0F901F90189526E8230F0296A11D4C
:10065000B11DD2CF1F920F920FB60F9211242F937C
:100660003F934F935F936F937F938F939F93AF933A
:10067000BF93EF93FF93E0910301F091040109957B
:10068000FF91EF91BF91AF919F918F917F916F916A
:100690005F914F913F912F910F900FBE0F901F9040
:1006A00018951F920F920FB60F9211242F933F931C
:1006B0004F935F936F937F938F939F93AF93BF936A
:1006C000EF93FF93E0910101F09102010995FF91F1
:1006D000EF91BF91AF919F918F917F916F915F91BA
:1006E0004F913F912F910F900FBE0F901F90189533
:1006F0001F920F920FB60F9211242F933F934F9397
:100700005F936F937F938F939F93AF93BF93EF9379
:10071000FF938091230190912401A0912501B09134
:100720002601892B8A2B8B2BC1F19091220180917C
:10073000000089278093000080912301909124017B
:10074000A0912501B0912601181619061A061B065C
:100750009CF48091230190912401A0912501B091F6
:1007600026010197A109B1098093230190932401E7
:10077000A0932501B0932601FF91EF91BF91AF9116
:100780009F918F917F916F915F914F913F912F91A9
:100790000F900FBE0F901F90189580910001E8E612
:1007A000F0E0E4919FEF90930001E13051F030F0E0
:1007B000E23069F060E00E948800DECF10926E00A7
:1007C000F9CF90916F009D7F90936F00F3CF909140
:1007D00070009D7F9093700091E09093B000909195
:1007E000B100987F94609093B1001092B300E2CF73
:1007F0001F920F920FB60F9211242F933F934F9396
:100800005F936F937F938F939F93AF93BF93EF9378
:10081000FF9380E391E00E94AE01FF91EF91BF91C1
:10082000AF919F918F917F916F915F914F913F9188
:100830002F910F900FBE0F901F9018951F920F923F
:100840000FB60F9211242F938F939F93EF93FF93E3
:10085000E0914001F09141018081E0914601F091E9
:10086000470182FD1BC09081809149018F5F8F738A
:1008700020914A01821741F0E0914901F0E0E05DEA
:10088000FE4F958F80934901FF91EF919F918F913A
:100890002F910F900FBE0F901F9018958081F4CF6D
:1008A000E0E3F1E01382128288EE93E0A0E0B0E092
:1008B00084839583A683B78389E091E091838083C5
:1008C00085EC90E09587848784EC90E09787868715
:1008D00080EC90E0918B808B81EC90E0938B828B0D
:1008E00082EC90E0958B848B86EC90E0978B868BE6
:1008F000118E128E138E148E0895789484B58260B2
:1009000084BD84B5816084BD85B5826085BD85B5B3
:10091000816085BD80916E00816080936E00109231
:1009200081008091810082608093810080918100AC
:10093000816080938100809180008160809380003D
:100940008091B10084608093B1008091B00081609B
:100950008093B00080917A00846080937A008091C7
:100960007A00826080937A0080917A00816080931F
:100970007A0080917A00806880937A001092C1009A
:10098000EEE9F0E02491EAE8F0E08491882399F020
:1009900090E0880F991FFC01E759FF4FA591B49192
:1009A000FC01ED58FF4F859194918FB7F894EC912D
:1009B000E22BEC938FBFC0E0D0E061E08DE00E94BD
:1009C00088000E94F90060E08DE00E9488000E948B
:1009D000F900209791F30E949A01882371F30E94F5
:1009E0000000EBCFA1E21A2EAA1BBB1BFD010DC01C
:1009F000AA1FBB1FEE1FFF1FA217B307E407F507CF
:100A000020F0A21BB30BE40BF50B661F771F881FAA
:100A1000991F1A9469F760957095809590959B0140
:100A2000AC01BD01CF010895EE0FFF1F0590F491B9
:080A3000E02D0994F894FFCFBA
:100A3800FF2F012F0100000000D00130015D011DD2
:080A4800028E016C0180010027
:00000001FF
